:100000000C9434000C9446000C9446000C9446006A
:100010000C9446000C9446000C9446000C94460048
:100020000C9446000C9446000C9446000C94460038
:100030000C9446000C9446000C9446000C94460028
:100040000C9448000C9446000C9446000C94460016
:100050000C9446000C9446000C9446000C94460008
:100060000C9446000C94460011241FBECFEFD8E03C
:10007000DEBFCDBF11E0A0E0B1E001C01D92A13014
:10008000B107E1F70E945E000C9469000C94000037
:100090001F920F920FB60F9211248F9316BC80916E
:1000A00000018F5F809300018C3011F410920001E9
:1000B0008F910F900FBE0F901F90189514BC84E085
:1000C00085BD80916E00816080936E00A89A7894BF
:0600D000FFCFF894FFCF02
:00000001FF
